{
  "contractName": "Predictionmarket",
  "abi": [
    {
      "inputs": [
        {
          "internalType": "address",
          "name": "_oracle",
          "type": "address"
        }
      ],
      "stateMutability": "nonpayable",
      "type": "constructor"
    },
    {
      "inputs": [],
      "name": "assignmentGraded",
      "outputs": [
        {
          "internalType": "bool",
          "name": "",
          "type": "bool"
        }
      ],
      "stateMutability": "view",
      "type": "function"
    },
    {
      "inputs": [
        {
          "internalType": "enum Predictionmarket.Team",
          "name": "",
          "type": "uint8"
        }
      ],
      "name": "bets",
      "outputs": [
        {
          "internalType": "uint256",
          "name": "",
          "type": "uint256"
        }
      ],
      "stateMutability": "view",
      "type": "function"
    },
    {
      "inputs": [
        {
          "internalType": "address",
          "name": "",
          "type": "address"
        },
        {
          "internalType": "enum Predictionmarket.Team",
          "name": "",
          "type": "uint8"
        }
      ],
      "name": "betsPerGambler",
      "outputs": [
        {
          "internalType": "uint256",
          "name": "",
          "type": "uint256"
        }
      ],
      "stateMutability": "view",
      "type": "function"
    },
    {
      "inputs": [],
      "name": "oracle",
      "outputs": [
        {
          "internalType": "address",
          "name": "",
          "type": "address"
        }
      ],
      "stateMutability": "view",
      "type": "function"
    },
    {
      "inputs": [],
      "name": "result",
      "outputs": [
        {
          "internalType": "enum Predictionmarket.Team",
          "name": "winner",
          "type": "uint8"
        },
        {
          "internalType": "enum Predictionmarket.Team",
          "name": "loser",
          "type": "uint8"
        }
      ],
      "stateMutability": "view",
      "type": "function"
    },
    {
      "inputs": [
        {
          "internalType": "enum Predictionmarket.Team",
          "name": "_team",
          "type": "uint8"
        }
      ],
      "name": "placeBet",
      "outputs": [],
      "stateMutability": "payable",
      "type": "function"
    },
    {
      "inputs": [
        {
          "internalType": "address payable",
          "name": "recipient",
          "type": "address"
        }
      ],
      "name": "withdrawGain",
      "outputs": [],
      "stateMutability": "nonpayable",
      "type": "function"
    },
    {
      "inputs": [
        {
          "internalType": "enum Predictionmarket.Team",
          "name": "_winner",
          "type": "uint8"
        },
        {
          "internalType": "enum Predictionmarket.Team",
          "name": "_loser",
          "type": "uint8"
        }
      ],
      "name": "reportResult",
      "outputs": [],
      "stateMutability": "nonpayable",
      "type": "function"
    }
  ],
  "bytecode": "0x60806040523480156200001157600080fd5b506040516200124e3803806200124e8339818101604052810190620000379190620000e9565b80600160006101000a81548173ffffffffffffffffffffffffffffffffffffffff021916908373ffffffffffffffffffffffffffffffffffffffff160217905550506200011b565b600080fd5b600073ffffffffffffffffffffffffffffffffffffffff82169050919050565b6000620000b18262000084565b9050919050565b620000c381620000a4565b8114620000cf57600080fd5b50565b600081519050620000e381620000b8565b92915050565b6000602082840312156200010257620001016200007f565b5b60006200011284828501620000d2565b91505092915050565b611123806200012b6000396000f3fe60806040526004361061007b5760003560e01c80637e0ecc001161004e5780637e0ecc001461011c5780639d5a373914610159578063a3452c2e14610196578063a88d7300146101c15761007b565b806343046844146100805780634ec942b71461009c57806365372147146100c55780637dc0d1d0146100f1575b600080fd5b61009a60048036038101906100959190610935565b6101ea565b005b3480156100a857600080fd5b506100c360048036038101906100be9190610962565b61031c565b005b3480156100d157600080fd5b506100da610479565b6040516100e8929190610a19565b60405180910390f35b3480156100fd57600080fd5b506101066104a5565b6040516101139190610a83565b60405180910390f35b34801561012857600080fd5b50610143600480360381019061013e9190610935565b6104cb565b6040516101509190610ab7565b60405180910390f35b34801561016557600080fd5b50610180600480360381019061017b9190610afe565b6104e3565b60405161018d9190610ab7565b60405180910390f35b3480156101a257600080fd5b506101ab610508565b6040516101b89190610b59565b60405180910390f35b3480156101cd57600080fd5b506101e860048036038101906101e39190610bb2565b61051b565b005b60001515600460009054906101000a900460ff16151514610240576040517f08c379a000000000000000000000000000000000000000000000000000000000815260040161023790610c62565b60405180910390fd5b3460026000836001811115610258576102576109a2565b5b600181111561026a576102696109a2565b5b815260200190815260200160002060008282546102879190610cb1565b9250508190555034600360003373ffffffffffffffffffffffffffffffffffffffff1673ffffffffffffffffffffffffffffffffffffffff16815260200190815260200160002060008360018111156102e3576102e26109a2565b5b60018111156102f5576102f46109a2565b5b815260200190815260200160002060008282546103129190610cb1565b9250508190555050565b3373ffffffffffffffffffffffffffffffffffffffff16600160009054906101000a900473ffffffffffffffffffffffffffffffffffffffff1673ffffffffffffffffffffffffffffffffffffffff16146103ac576040517f08c379a00000000000000000000000000000000000000000000000000000000081526004016103a390610d57565b60405180910390fd5b60001515600460009054906101000a900460ff16151514610402576040517f08c379a00000000000000000000000000000000000000000000000000000000081526004016103f990610de9565b60405180910390fd5b816000800160006101000a81548160ff02191690836001811115610429576104286109a2565b5b0217905550806000800160016101000a81548160ff02191690836001811115610455576104546109a2565b5b02179055506001600460006101000a81548160ff0219169083151502179055505050565b60008060000160009054906101000a900460ff16908060000160019054906101000a900460ff16905082565b600160009054906101000a900473ffffffffffffffffffffffffffffffffffffffff1681565b60026020528060005260406000206000915090505481565b6003602052816000526040600020602052806000526040600020600091509150505481565b600460009054906101000a900460ff1681565b3373ffffffffffffffffffffffffffffffffffffffff168173ffffffffffffffffffffffffffffffffffffffff1614610589576040517f08c379a000000000000000000000000000000000000000000000000000000000815260040161058090610e7b565b60405180910390fd5b6000600360003373ffffffffffffffffffffffffffffffffffffffff1673ffffffffffffffffffffffffffffffffffffffff16815260200190815260200160002060008060000160009054906101000a900460ff1660018111156105f0576105ef6109a2565b5b6001811115610602576106016109a2565b5b815260200190815260200160002054905060008111610656576040517f08c379a000000000000000000000000000000000000000000000000000000000815260040161064d90610f0d565b60405180910390fd5b60011515600460009054906101000a900460ff161515146106ac576040517f08c379a00000000000000000000000000000000000000000000000000000000081526004016106a390610f79565b60405180910390fd5b6000600260008060000160009054906101000a900460ff1660018111156106d6576106d56109a2565b5b60018111156106e8576106e76109a2565b5b81526020019081526020016000205482600260008060000160019054906101000a900460ff1660018111156107205761071f6109a2565b5b6001811115610732576107316109a2565b5b81526020019081526020016000205461074b9190610f99565b610755919061100a565b826107609190610cb1565b90506000600360003373ffffffffffffffffffffffffffffffffffffffff1673ffffffffffffffffffffffffffffffffffffffff16815260200190815260200160002060008060018111156107b8576107b76109a2565b5b60018111156107ca576107c96109a2565b5b8152602001908152602001600020819055506000600360003373ffffffffffffffffffffffffffffffffffffffff1673ffffffffffffffffffffffffffffffffffffffff1681526020019081526020016000206000600180811115610832576108316109a2565b5b6001811115610844576108436109a2565b5b8152602001908152602001600020819055506000808473ffffffffffffffffffffffffffffffffffffffff168360405161087d9061106c565b60006040518083038185875af1925050503d80600081146108ba576040519150601f19603f3d011682016040523d82523d6000602084013e6108bf565b606091505b509150915081610904576040517f08c379a00000000000000000000000000000000000000000000000000000000081526004016108fb906110cd565b60405180910390fd5b5050505050565b600080fd5b6002811061091d57600080fd5b50565b60008135905061092f81610910565b92915050565b60006020828403121561094b5761094a61090b565b5b600061095984828501610920565b91505092915050565b600080604083850312156109795761097861090b565b5b600061098785828601610920565b925050602061099885828601610920565b9150509250929050565b7f4e487b7100000000000000000000000000000000000000000000000000000000600052602160045260246000fd5b600281106109e2576109e16109a2565b5b50565b60008190506109f3826109d1565b919050565b6000610a03826109e5565b9050919050565b610a13816109f8565b82525050565b6000604082019050610a2e6000830185610a0a565b610a3b6020830184610a0a565b9392505050565b600073ffffffffffffffffffffffffffffffffffffffff82169050919050565b6000610a6d82610a42565b9050919050565b610a7d81610a62565b82525050565b6000602082019050610a986000830184610a74565b92915050565b6000819050919050565b610ab181610a9e565b82525050565b6000602082019050610acc6000830184610aa8565b92915050565b610adb81610a62565b8114610ae657600080fd5b50565b600081359050610af881610ad2565b92915050565b60008060408385031215610b1557610b1461090b565b5b6000610b2385828601610ae9565b9250506020610b3485828601610920565b9150509250929050565b60008115159050919050565b610b5381610b3e565b82525050565b6000602082019050610b6e6000830184610b4a565b92915050565b6000610b7f82610a42565b9050919050565b610b8f81610b74565b8114610b9a57600080fd5b50565b600081359050610bac81610b86565b92915050565b600060208284031215610bc857610bc761090b565b5b6000610bd684828501610b9d565b91505092915050565b600082825260208201905092915050565b7f61737369676e6d656e7420686173206265656e2067726164656420616c72656160008201527f64792e0000000000000000000000000000000000000000000000000000000000602082015250565b6000610c4c602383610bdf565b9150610c5782610bf0565b604082019050919050565b60006020820190508181036000830152610c7b81610c3f565b9050919050565b7f4e487b7100000000000000000000000000000000000000000000000000000000600052601160045260246000fd5b6000610cbc82610a9e565b9150610cc783610a9e565b9250828201905080821115610cdf57610cde610c82565b5b92915050565b7f4f4e4c5920544845204f5241434c452043414e205245504f52542e204e49434560008201527f2054525921000000000000000000000000000000000000000000000000000000602082015250565b6000610d41602583610bdf565b9150610d4c82610ce5565b604082019050919050565b60006020820190508181036000830152610d7081610d34565b9050919050565b7f41737369676e6d656e742068617320616c7265616479206265656e206772616460008201527f65642e0000000000000000000000000000000000000000000000000000000000602082015250565b6000610dd3602383610bdf565b9150610dde82610d77565b604082019050919050565b60006020820190508181036000830152610e0281610dc6565b9050919050565b7f4f6e6c792061646472657373206f776e65722063616e2077697468647261772060008201527f7468656972206761696e732e0000000000000000000000000000000000000000602082015250565b6000610e65602c83610bdf565b9150610e7082610e09565b604082019050919050565b60006020820190508181036000830152610e9481610e58565b9050919050565b7f596f7520646964206e6f7420626574206f6e207468652077696e6e696e67206f60008201527f7574636f6d652e00000000000000000000000000000000000000000000000000602082015250565b6000610ef7602783610bdf565b9150610f0282610e9b565b604082019050919050565b60006020820190508181036000830152610f2681610eea565b9050919050565b7f41737369676e6d656e7420686173206e6f74206265656e206772616465640000600082015250565b6000610f63601e83610bdf565b9150610f6e82610f2d565b602082019050919050565b60006020820190508181036000830152610f9281610f56565b9050919050565b6000610fa482610a9e565b9150610faf83610a9e565b9250828202610fbd81610a9e565b91508282048414831517610fd457610fd3610c82565b5b5092915050565b7f4e487b7100000000000000000000000000000000000000000000000000000000600052601260045260246000fd5b600061101582610a9e565b915061102083610a9e565b9250826110305761102f610fdb565b5b828204905092915050565b600081905092915050565b50565b600061105660008361103b565b915061106182611046565b600082019050919050565b600061107782611049565b9150819050919050565b7f4661696c656420746f2073656e64204574686572000000000000000000000000600082015250565b60006110b7601483610bdf565b91506110c282611081565b602082019050919050565b600060208201905081810360008301526110e6816110aa565b905091905056fea2646970667358221220848bf1afb344719c2a913e0a76de68e21c061f45c85facf29d2d84453c3810cf64736f6c63430008130033",
  "immutableReferences": {},
  "source": "pragma solidity ^0.8.19;\n\ncontract Predictionmarket {\n    enum Team {TeamA, TeamNotA }\n    struct Result {\n        Team winner;\n        Team loser;\n    }\n    Result public result;\n    address public oracle;\n\n    // accounts for total amt gambled on each Team\n    mapping(Team => uint) public bets;\n    mapping(address => mapping(Team => uint)) public betsPerGambler;\n    bool public assignmentGraded;\n\n    constructor(address _oracle) {\n        oracle = _oracle;\n    }\n\n    function placeBet(Team _team) external payable {\n        require(assignmentGraded == false, 'assignment has been graded already.');\n        // update the maps with the new bet\n        bets[_team] += msg.value;\n        betsPerGambler[msg.sender][_team] += msg.value;\n    }\n\n    function withdrawGain(address payable recipient) external {\n        require(recipient == msg.sender, \"Only address owner can withdraw their gains.\");\n        uint gamblerBet = betsPerGambler[msg.sender][result.winner];\n        require(gamblerBet > 0, 'You did not bet on the winning outcome.');\n        require(assignmentGraded == true, 'Assignment has not been graded');\n        // all gamblers who bet on the winning outcome receive their stake back, thus the winners are entitled to a stake from the losing pool proportional to their stake in the winning pool\n        uint gain = gamblerBet + bets[result.loser]*gamblerBet / bets[result.winner];\n        // reset bets back to 0\n        betsPerGambler[msg.sender][Team.TeamA] = 0;\n        betsPerGambler[msg.sender][Team.TeamNotA] = 0;\n        // send funds\n        (bool sent, bytes memory data) = payable(recipient).call{value: gain}(\"\");\n        require(sent, \"Failed to send Ether\");\n    }\n\n    function reportResult(Team _winner, Team _loser) external {\n        require(oracle == msg.sender, 'ONLY THE ORACLE CAN REPORT. NICE TRY!');\n        require(assignmentGraded == false, 'Assignment has already been graded.');\n        result.winner = _winner;\n        result.loser = _loser;\n        assignmentGraded = true;\n    }\n\n}\n",
  "sourcePath": "/Users/shameekh/Desktop/code/Princeton_CS/COS 473 (Decentralized Finance)/Prediction_Market/contracts/PredictionMarket.sol",
  "compiler": {
    "name": "solc",
    "version": "0.8.19+commit.7dd6d404.Emscripten.clang"
  },
  "schemaVersion": "3.4.13",
  "updatedAt": "2023-04-23T00:44:09.019Z",
  "devdoc": {
    "kind": "dev",
    "methods": {},
    "version": 1
  },
  "userdoc": {
    "kind": "user",
    "methods": {},
    "version": 1
  }
}